{
  "_format": "hh-sol-artifact-1",
  "contractName": "OmnityPortContract",
  "sourceName": "contracts/OmnityPort.sol",
  "abi": [
    {
      "inputs": [
        {
          "internalType": "address",
          "name": "target",
          "type": "address"
        }
      ],
      "name": "AddressEmptyCode",
      "type": "error"
    },
    {
      "inputs": [
        {
          "internalType": "address",
          "name": "implementation",
          "type": "address"
        }
      ],
      "name": "ERC1967InvalidImplementation",
      "type": "error"
    },
    {
      "inputs": [],
      "name": "ERC1967NonPayable",
      "type": "error"
    },
    {
      "inputs": [],
      "name": "FailedInnerCall",
      "type": "error"
    },
    {
      "inputs": [],
      "name": "InvalidInitialization",
      "type": "error"
    },
    {
      "inputs": [],
      "name": "NotInitializing",
      "type": "error"
    },
    {
      "inputs": [
        {
          "internalType": "address",
          "name": "owner",
          "type": "address"
        }
      ],
      "name": "OwnableInvalidOwner",
      "type": "error"
    },
    {
      "inputs": [
        {
          "internalType": "address",
          "name": "account",
          "type": "address"
        }
      ],
      "name": "OwnableUnauthorizedAccount",
      "type": "error"
    },
    {
      "inputs": [],
      "name": "UUPSUnauthorizedCallContext",
      "type": "error"
    },
    {
      "inputs": [
        {
          "internalType": "bytes32",
          "name": "slot",
          "type": "bytes32"
        }
      ],
      "name": "UUPSUnsupportedProxiableUUID",
      "type": "error"
    },
    {
      "anonymous": false,
      "inputs": [
        {
          "indexed": false,
          "internalType": "address",
          "name": "to",
          "type": "address"
        },
        {
          "indexed": false,
          "internalType": "uint256",
          "name": "amount",
          "type": "uint256"
        }
      ],
      "name": "BalanceCollected",
      "type": "event"
    },
    {
      "anonymous": false,
      "inputs": [
        {
          "indexed": false,
          "internalType": "uint256",
          "name": "seq",
          "type": "uint256"
        }
      ],
      "name": "DirectiveExecuted",
      "type": "event"
    },
    {
      "anonymous": false,
      "inputs": [
        {
          "indexed": false,
          "internalType": "uint64",
          "name": "version",
          "type": "uint64"
        }
      ],
      "name": "Initialized",
      "type": "event"
    },
    {
      "anonymous": false,
      "inputs": [
        {
          "indexed": true,
          "internalType": "address",
          "name": "previousOwner",
          "type": "address"
        },
        {
          "indexed": true,
          "internalType": "address",
          "name": "newOwner",
          "type": "address"
        }
      ],
      "name": "OwnershipTransferred",
      "type": "event"
    },
    {
      "anonymous": false,
      "inputs": [
        {
          "indexed": false,
          "internalType": "string",
          "name": "tokenId",
          "type": "string"
        },
        {
          "indexed": false,
          "internalType": "address",
          "name": "tokenAddress",
          "type": "address"
        }
      ],
      "name": "TokenAdded",
      "type": "event"
    },
    {
      "anonymous": false,
      "inputs": [
        {
          "indexed": false,
          "internalType": "string",
          "name": "tokenId",
          "type": "string"
        },
        {
          "indexed": false,
          "internalType": "address",
          "name": "sender",
          "type": "address"
        },
        {
          "indexed": false,
          "internalType": "string",
          "name": "receiver",
          "type": "string"
        },
        {
          "indexed": false,
          "internalType": "uint256",
          "name": "amount",
          "type": "uint256"
        }
      ],
      "name": "TokenBurned",
      "type": "event"
    },
    {
      "anonymous": false,
      "inputs": [
        {
          "indexed": false,
          "internalType": "string",
          "name": "tokenId",
          "type": "string"
        },
        {
          "indexed": false,
          "internalType": "address",
          "name": "receiver",
          "type": "address"
        },
        {
          "indexed": false,
          "internalType": "uint256",
          "name": "amount",
          "type": "uint256"
        },
        {
          "indexed": false,
          "internalType": "string",
          "name": "ticketId",
          "type": "string"
        },
        {
          "indexed": false,
          "internalType": "string",
          "name": "memo",
          "type": "string"
        }
      ],
      "name": "TokenMinted",
      "type": "event"
    },
    {
      "anonymous": false,
      "inputs": [
        {
          "indexed": false,
          "internalType": "string",
          "name": "dstChainId",
          "type": "string"
        },
        {
          "indexed": false,
          "internalType": "string",
          "name": "tokenId",
          "type": "string"
        },
        {
          "indexed": false,
          "internalType": "address",
          "name": "sender",
          "type": "address"
        },
        {
          "indexed": false,
          "internalType": "string",
          "name": "receiver",
          "type": "string"
        },
        {
          "indexed": false,
          "internalType": "uint256",
          "name": "amount",
          "type": "uint256"
        },
        {
          "indexed": false,
          "internalType": "string",
          "name": "memo",
          "type": "string"
        }
      ],
      "name": "TokenTransportRequested",
      "type": "event"
    },
    {
      "anonymous": false,
      "inputs": [
        {
          "indexed": true,
          "internalType": "address",
          "name": "implementation",
          "type": "address"
        }
      ],
      "name": "Upgraded",
      "type": "event"
    },
    {
      "inputs": [],
      "name": "UPGRADE_INTERFACE_VERSION",
      "outputs": [
        {
          "internalType": "string",
          "name": "",
          "type": "string"
        }
      ],
      "stateMutability": "view",
      "type": "function"
    },
    {
      "inputs": [
        {
          "internalType": "string",
          "name": "tokenId",
          "type": "string"
        },
        {
          "internalType": "uint256",
          "name": "amount",
          "type": "uint256"
        }
      ],
      "name": "burnToken",
      "outputs": [],
      "stateMutability": "payable",
      "type": "function"
    },
    {
      "inputs": [
        {
          "internalType": "string",
          "name": "target_chain_id",
          "type": "string"
        }
      ],
      "name": "calculateFee",
      "outputs": [
        {
          "internalType": "uint128",
          "name": "",
          "type": "uint128"
        }
      ],
      "stateMutability": "view",
      "type": "function"
    },
    {
      "inputs": [],
      "name": "chainKeyAddress",
      "outputs": [
        {
          "internalType": "address",
          "name": "",
          "type": "address"
        }
      ],
      "stateMutability": "view",
      "type": "function"
    },
    {
      "inputs": [
        {
          "internalType": "address",
          "name": "newChainKeyAddress",
          "type": "address"
        }
      ],
      "name": "changeChainKeyAddress",
      "outputs": [],
      "stateMutability": "nonpayable",
      "type": "function"
    },
    {
      "inputs": [
        {
          "internalType": "address",
          "name": "to_",
          "type": "address"
        }
      ],
      "name": "collectFee",
      "outputs": [],
      "stateMutability": "nonpayable",
      "type": "function"
    },
    {
      "inputs": [],
      "name": "feeTokenFactor",
      "outputs": [
        {
          "internalType": "uint128",
          "name": "",
          "type": "uint128"
        }
      ],
      "stateMutability": "view",
      "type": "function"
    },
    {
      "inputs": [
        {
          "internalType": "string[]",
          "name": "ticketIds",
          "type": "string[]"
        }
      ],
      "name": "fillHistoryTickets",
      "outputs": [],
      "stateMutability": "nonpayable",
      "type": "function"
    },
    {
      "inputs": [
        {
          "internalType": "uint256",
          "name": "",
          "type": "uint256"
        }
      ],
      "name": "handledDirectives",
      "outputs": [
        {
          "internalType": "bool",
          "name": "",
          "type": "bool"
        }
      ],
      "stateMutability": "view",
      "type": "function"
    },
    {
      "inputs": [
        {
          "internalType": "string",
          "name": "",
          "type": "string"
        }
      ],
      "name": "handledTickets",
      "outputs": [
        {
          "internalType": "bool",
          "name": "",
          "type": "bool"
        }
      ],
      "stateMutability": "view",
      "type": "function"
    },
    {
      "inputs": [
        {
          "internalType": "address",
          "name": "_chainKeyAddress",
          "type": "address"
        }
      ],
      "name": "initialize",
      "outputs": [],
      "stateMutability": "nonpayable",
      "type": "function"
    },
    {
      "inputs": [],
      "name": "isActive",
      "outputs": [
        {
          "internalType": "bool",
          "name": "",
          "type": "bool"
        }
      ],
      "stateMutability": "view",
      "type": "function"
    },
    {
      "inputs": [],
      "name": "lastExecutedSequence",
      "outputs": [
        {
          "internalType": "uint256",
          "name": "",
          "type": "uint256"
        }
      ],
      "stateMutability": "view",
      "type": "function"
    },
    {
      "inputs": [],
      "name": "owner",
      "outputs": [
        {
          "internalType": "address",
          "name": "",
          "type": "address"
        }
      ],
      "stateMutability": "view",
      "type": "function"
    },
    {
      "inputs": [
        {
          "internalType": "bytes",
          "name": "directiveBytes",
          "type": "bytes"
        }
      ],
      "name": "privilegedExecuteDirective",
      "outputs": [],
      "stateMutability": "nonpayable",
      "type": "function"
    },
    {
      "inputs": [
        {
          "internalType": "string",
          "name": "tokenId",
          "type": "string"
        },
        {
          "internalType": "address",
          "name": "receiver",
          "type": "address"
        },
        {
          "internalType": "uint256",
          "name": "amount",
          "type": "uint256"
        },
        {
          "internalType": "string",
          "name": "ticketId",
          "type": "string"
        },
        {
          "internalType": "string",
          "name": "memo",
          "type": "string"
        }
      ],
      "name": "privilegedMintToken",
      "outputs": [],
      "stateMutability": "nonpayable",
      "type": "function"
    },
    {
      "inputs": [],
      "name": "proxiableUUID",
      "outputs": [
        {
          "internalType": "bytes32",
          "name": "",
          "type": "bytes32"
        }
      ],
      "stateMutability": "view",
      "type": "function"
    },
    {
      "inputs": [
        {
          "internalType": "string",
          "name": "tokenId",
          "type": "string"
        },
        {
          "internalType": "string",
          "name": "receiver",
          "type": "string"
        },
        {
          "internalType": "uint256",
          "name": "amount",
          "type": "uint256"
        }
      ],
      "name": "redeemToken",
      "outputs": [],
      "stateMutability": "payable",
      "type": "function"
    },
    {
      "inputs": [],
      "name": "renounceOwnership",
      "outputs": [],
      "stateMutability": "nonpayable",
      "type": "function"
    },
    {
      "inputs": [
        {
          "internalType": "string",
          "name": "",
          "type": "string"
        }
      ],
      "name": "targetChainFactor",
      "outputs": [
        {
          "internalType": "uint128",
          "name": "",
          "type": "uint128"
        }
      ],
      "stateMutability": "view",
      "type": "function"
    },
    {
      "inputs": [
        {
          "internalType": "string",
          "name": "",
          "type": "string"
        }
      ],
      "name": "tokens",
      "outputs": [
        {
          "internalType": "string",
          "name": "name",
          "type": "string"
        },
        {
          "internalType": "string",
          "name": "symbol",
          "type": "string"
        },
        {
          "internalType": "uint8",
          "name": "decimals",
          "type": "uint8"
        },
        {
          "internalType": "address",
          "name": "erc20ContractAddr",
          "type": "address"
        },
        {
          "internalType": "string",
          "name": "settlementChainId",
          "type": "string"
        }
      ],
      "stateMutability": "view",
      "type": "function"
    },
    {
      "inputs": [
        {
          "internalType": "address",
          "name": "newOwner",
          "type": "address"
        }
      ],
      "name": "transferOwnership",
      "outputs": [],
      "stateMutability": "nonpayable",
      "type": "function"
    },
    {
      "inputs": [
        {
          "internalType": "address",
          "name": "newTokenOwner",
          "type": "address"
        }
      ],
      "name": "transferTokensOwnership",
      "outputs": [],
      "stateMutability": "nonpayable",
      "type": "function"
    },
    {
      "inputs": [
        {
          "internalType": "string",
          "name": "dstChainId",
          "type": "string"
        },
        {
          "internalType": "string",
          "name": "tokenId",
          "type": "string"
        },
        {
          "internalType": "string",
          "name": "receiver",
          "type": "string"
        },
        {
          "internalType": "uint256",
          "name": "amount",
          "type": "uint256"
        },
        {
          "internalType": "string",
          "name": "memo",
          "type": "string"
        }
      ],
      "name": "transportToken",
      "outputs": [],
      "stateMutability": "payable",
      "type": "function"
    },
    {
      "inputs": [
        {
          "internalType": "string",
          "name": "tokenId",
          "type": "string"
        },
        {
          "internalType": "string",
          "name": "name_",
          "type": "string"
        }
      ],
      "name": "updateTokenName",
      "outputs": [],
      "stateMutability": "nonpayable",
      "type": "function"
    },
    {
      "inputs": [
        {
          "internalType": "string",
          "name": "tokenId",
          "type": "string"
        },
        {
          "internalType": "string",
          "name": "symbol_",
          "type": "string"
        }
      ],
      "name": "updateTokenSymbol",
      "outputs": [],
      "stateMutability": "nonpayable",
      "type": "function"
    },
    {
      "inputs": [
        {
          "internalType": "address",
          "name": "newImplementation",
          "type": "address"
        },
        {
          "internalType": "bytes",
          "name": "data",
          "type": "bytes"
        }
      ],
      "name": "upgradeToAndCall",
      "outputs": [],
      "stateMutability": "payable",
      "type": "function"
    }
  ],
  "bytecode": "0x60a06040523060805234801561001457600080fd5b50608051613d3761003e600039600081816117240152818161174e01526118a30152613d376000f3fe608060405260043610620001bd5760003560e01c80635a4177e411620000ff578063ad3cb1cc1162000095578063cf522fad116200006c578063cf522fad1462000590578063d990d1a514620005b5578063d9afa16014620005d7578063f2fde38b14620005fc57600080fd5b8063ad3cb1cc1462000507578063bd7a2dba1462000549578063c4d66de8146200056b57600080fd5b806377b9104511620000d657806377b910451462000425578063809a3d9a146200044a5780638da5cb5b146200048f578063a3524b7114620004e257600080fd5b80635a4177e414620003b457806369b59e7514620003e8578063715018a6146200040d57600080fd5b8063312e222c11620001755780633681495d116200014c5780633681495d14620003495780634358c93c146200036e5780634f1ef286146200038557806352d1902d146200039c57600080fd5b8063312e222c14620002ce57806331abda28146200030d57806334b09371146200032457600080fd5b8062f55f4014620001c2578063042763ad14620001ed57806304c2320b146200022b5780630cf3a6b61462000263578063189ec27a146200027c57806322f3e2d414620002a1575b600080fd5b348015620001cf57600080fd5b50620001da60015481565b6040519081526020015b60405180910390f35b348015620001fa57600080fd5b50620002126200020c366004620020ef565b62000621565b6040516001600160801b039091168152602001620001e4565b3480156200023857600080fd5b50620002506200024a366004620020ef565b6200066f565b604051620001e495949392919062002183565b6200027a62000274366004620021e6565b62000868565b005b3480156200028957600080fd5b506200027a6200029b366004620022a9565b620009c0565b348015620002ae57600080fd5b50600254620002bd9060ff1681565b6040519015158152602001620001e4565b348015620002db57600080fd5b50620002bd620002ed366004620020ef565b805160208183018101805160058252928201919093012091525460ff1681565b6200027a6200031e36600462002379565b62000a40565b3480156200033157600080fd5b506200027a6200034336600462002402565b62000c3c565b3480156200035657600080fd5b506200027a6200036836600462002498565b62000da5565b6200027a6200037f366004620024b8565b6200107c565b6200027a6200039636600462002500565b620011a9565b348015620003a957600080fd5b50620001da620011ca565b348015620003c157600080fd5b50620002bd620003d336600462002555565b60066020526000908152604090205460ff1681565b348015620003f557600080fd5b506200027a6200040736600462002498565b620011ea565b3480156200041a57600080fd5b506200027a6200126e565b3480156200043257600080fd5b506200027a62000444366004620020ef565b62001286565b3480156200045757600080fd5b506200021262000469366004620020ef565b80516020818301810180516007825292820191909301209152546001600160801b031681565b3480156200049c57600080fd5b507f9016d09d72d40fdae2fd8ceac6b6234c7706214fd39c1cd1e609a0528c199300546001600160a01b03165b6040516001600160a01b039091168152602001620001e4565b348015620004ef57600080fd5b506200027a620005013660046200256f565b620012c4565b3480156200051457600080fd5b506200053a604051806040016040528060058152602001640352e302e360dc1b81525081565b604051620001e49190620025cf565b3480156200055657600080fd5b5060085462000212906001600160801b031681565b3480156200057857600080fd5b506200027a6200058a36600462002498565b6200138b565b3480156200059d57600080fd5b506200027a620005af36600462002498565b62001524565b348015620005c257600080fd5b50600054620004c9906001600160a01b031681565b348015620005e457600080fd5b506200027a620005f63660046200256f565b620015a2565b3480156200060957600080fd5b506200027a6200061b36600462002498565b62001634565b6008546040516000916001600160801b03169060079062000644908590620025e4565b908152604051908190036020019020546200066991906001600160801b031662002618565b92915050565b8051602081830181018051600382529282019190930120915280548190620006979062002646565b80601f0160208091040260200160405190810160405280929190818152602001828054620006c59062002646565b8015620007165780601f10620006ea5761010080835404028352916020019162000716565b820191906000526020600020905b815481529060010190602001808311620006f857829003601f168201915b5050505050908060010180546200072d9062002646565b80601f01602080910402602001604051908101604052809291908181526020018280546200075b9062002646565b8015620007ac5780601f106200078057610100808354040283529160200191620007ac565b820191906000526020600020905b8154815290600101906020018083116200078e57829003601f168201915b505050506002830154600384018054939460ff8316946101009093046001600160a01b0316935091620007df9062002646565b80601f01602080910402602001604051908101604052809291908181526020018280546200080d9062002646565b80156200085e5780601f1062000832576101008083540402835291602001916200085e565b820191906000526020600020905b8154815290600101906020018083116200084057829003601f168201915b5050505050905085565b60008211620008945760405162461bcd60e51b81526004016200088b9062002682565b60405180910390fd5b6000835111620008b85760405162461bcd60e51b81526004016200088b90620026c3565b620008c38562000621565b6001600160801b03163414620008ed5760405162461bcd60e51b81526004016200088b9062002706565b600384604051620008ff9190620025e4565b90815260405190819003602001812060020154632770a7eb60e21b8252336004830152602482018490526001600160a01b036101009091041690639dc29fac90604401600060405180830381600087803b1580156200095d57600080fd5b505af115801562000972573d6000803e3d6000fd5b505050507f68531bac15564128bfb571d8710ffa266b7b82eb409040b4c0fe7eae2e2b0dfa858533868686604051620009b19695949392919062002753565b60405180910390a15050505050565b620009ca62001678565b60005b815181101562000a3c5760016005838381518110620009f057620009f0620027bd565b602002602001015160405162000a079190620025e4565b908152604051908190036020019020805491151560ff199092169190911790558062000a3381620027d3565b915050620009cd565b5050565b6000811162000a635760405162461bcd60e51b81526004016200088b9062002682565b600082511162000a875760405162461bcd60e51b81526004016200088b90620026c3565b62000b4560038460405162000a9d9190620025e4565b9081526020016040518091039020600301805462000abb9062002646565b80601f016020809104026020016040519081016040528092919081815260200182805462000ae99062002646565b801562000b3a5780601f1062000b0e5761010080835404028352916020019162000b3a565b820191906000526020600020905b81548152906001019060200180831162000b1c57829003601f168201915b505050505062000621565b6001600160801b0316341462000b6f5760405162461bcd60e51b81526004016200088b9062002706565b60038360405162000b819190620025e4565b90815260405190819003602001812060020154632770a7eb60e21b8252336004830152602482018390526001600160a01b036101009091041690639dc29fac90604401600060405180830381600087803b15801562000bdf57600080fd5b505af115801562000bf4573d6000803e3d6000fd5b505050507f3ae5b52a5b9830dd7132320e97bb678e6dfac10e43b1a72e35cc3d9537af26e48333848460405162000c2f9493929190620027ef565b60405180910390a1505050565b62000c4662001678565b60058260405162000c589190620025e4565b9081526040519081900360200190205460ff161562000cae5760405162461bcd60e51b81526020600482015260116024820152701d1a58dad95d081a5cc81a185b991b1959607a1b60448201526064016200088b565b60038560405162000cc09190620025e4565b908152604051908190036020018120600201546340c10f1960e01b82526001600160a01b0386811660048401526024830186905261010090910416906340c10f1990604401600060405180830381600087803b15801562000d2057600080fd5b505af115801562000d35573d6000803e3d6000fd5b50505050600160058360405162000d4d9190620025e4565b908152604051908190036020018120805492151560ff19909316929092179091557f91985b1445c18e048e42c562eb5b933c54d757fea1ab76ada9b10fa0c3d20c0490620009b1908790879087908790879062002839565b62000daf62001678565b60005b60045481101562000a3c57600060036004838154811062000dd75762000dd7620027bd565b9060005260206000200160405162000df091906200288e565b90815260200160405180910390206040518060a001604052908160008201805462000e1b9062002646565b80601f016020809104026020016040519081016040528092919081815260200182805462000e499062002646565b801562000e9a5780601f1062000e6e5761010080835404028352916020019162000e9a565b820191906000526020600020905b81548152906001019060200180831162000e7c57829003601f168201915b5050505050815260200160018201805462000eb59062002646565b80601f016020809104026020016040519081016040528092919081815260200182805462000ee39062002646565b801562000f345780601f1062000f085761010080835404028352916020019162000f34565b820191906000526020600020905b81548152906001019060200180831162000f1657829003601f168201915b5050509183525050600282015460ff8116602083015261010090046001600160a01b0316604082015260038201805460609092019162000f749062002646565b80601f016020809104026020016040519081016040528092919081815260200182805462000fa29062002646565b801562000ff35780601f1062000fc75761010080835404028352916020019162000ff3565b820191906000526020600020905b81548152906001019060200180831162000fd557829003601f168201915b50505091909252505050606081015160405163f2fde38b60e01b81526001600160a01b038681166004830152929350909182169063f2fde38b90602401600060405180830381600087803b1580156200104b57600080fd5b505af115801562001060573d6000803e3d6000fd5b50505050505080806200107390620027d3565b91505062000db2565b600081116200109f5760405162461bcd60e51b81526004016200088b9062002682565b620010b560038360405162000a9d9190620025e4565b6001600160801b03163414620010df5760405162461bcd60e51b81526004016200088b9062002706565b600382604051620010f19190620025e4565b90815260405190819003602001812060020154632770a7eb60e21b8252336004830152602482018390526001600160a01b036101009091041690639dc29fac90604401600060405180830381600087803b1580156200114f57600080fd5b505af115801562001164573d6000803e3d6000fd5b505050507f3ae5b52a5b9830dd7132320e97bb678e6dfac10e43b1a72e35cc3d9537af26e48233836040516200119d939291906200290c565b60405180910390a15050565b620011b362001719565b620011be82620017c2565b62000a3c8282620017cc565b6000620011d662001898565b5060008051602062003ce283398151915290565b620011f462001678565b60405147906001600160a01b0383169082156108fc029083906000818181858888f193505050501580156200122d573d6000803e3d6000fd5b50604080516001600160a01b0384168152602081018390527f3d4c43d508d934cbaca9ae7143146f4eda5160f442573ccee9437decc9a3b8ba91016200119d565b6200127862001678565b620012846000620018e2565b565b6200129062001678565b600080600083806020019051810190620012ab919062002990565b925092509250620012be83838362001953565b50505050565b620012ce62001678565b80600383604051620012e19190620025e4565b90815260405190819003602001902090620012fd908262002a51565b50600382604051620013109190620025e4565b908152604051908190036020018120600201546384da92a760e01b82526001600160a01b0361010090910416906384da92a79062001353908490600401620025cf565b600060405180830381600087803b1580156200136e57600080fd5b505af115801562001383573d6000803e3d6000fd5b505050505050565b7ff0c57e16840df040f15088dc2f81fe391c3923bec73e23a9662efc9c229c6a008054600160401b810460ff1615906001600160401b0316600081158015620013d15750825b90506000826001600160401b03166001148015620013ee5750303b155b905081158015620013fd575080155b156200141c5760405163f92ee8a960e01b815260040160405180910390fd5b845467ffffffffffffffff1916600117855583156200144757845460ff60401b1916600160401b1785555b6001600160a01b038616620014995760405162461bcd60e51b8152602060048201526017602482015276636861696e4b657941646472657373206973207a65726f60481b60448201526064016200088b565b600080546001600160a01b0319166001600160a01b0388161790556002805460ff19166001179055620014cc3362001dae565b620014d662001dc3565b83156200138357845460ff60401b19168555604051600181527fc7f505b2f371ae2175ee4913f4499e1f2633a7b5936321eed1cdaeb6115181d29060200160405180910390a1505050505050565b6200152e62001678565b6001600160a01b038116620015805760405162461bcd60e51b8152602060048201526017602482015276636861696e4b657941646472657373206973207a65726f60481b60448201526064016200088b565b600080546001600160a01b0319166001600160a01b0392909216919091179055565b620015ac62001678565b80600383604051620015bf9190620025e4565b90815260200160405180910390206001019081620015de919062002a51565b50600382604051620015f19190620025e4565b908152604051908190036020018120600201546329bfa98960e11b82526001600160a01b03610100909104169063537f53129062001353908490600401620025cf565b6200163e62001678565b6001600160a01b0381166200166a57604051631e4fbdf760e01b8152600060048201526024016200088b565b6200167581620018e2565b50565b33620016ab7f9016d09d72d40fdae2fd8ceac6b6234c7706214fd39c1cd1e609a0528c199300546001600160a01b031690565b6001600160a01b03161480620016cb57506000546001600160a01b031633145b620012845760405162461bcd60e51b815260206004820181905260248201527f4f776e61626c653a2063616c6c6572206973206e6f7420746865206f776e657260448201526064016200088b565b306001600160a01b037f0000000000000000000000000000000000000000000000000000000000000000161480620017a357507f00000000000000000000000000000000000000000000000000000000000000006001600160a01b03166200179760008051602062003ce2833981519152546001600160a01b031690565b6001600160a01b031614155b15620012845760405163703e46dd60e11b815260040160405180910390fd5b6200167562001678565b816001600160a01b03166352d1902d6040518163ffffffff1660e01b8152600401602060405180830381865afa92505050801562001829575060408051601f3d908101601f19168201909252620018269181019062002b1d565b60015b6200185357604051634c9c8ce360e01b81526001600160a01b03831660048201526024016200088b565b60008051602062003ce283398151915281146200188757604051632a87526960e21b8152600481018290526024016200088b565b62001893838362001dcd565b505050565b306001600160a01b037f00000000000000000000000000000000000000000000000000000000000000001614620012845760405163703e46dd60e11b815260040160405180910390fd5b7f9016d09d72d40fdae2fd8ceac6b6234c7706214fd39c1cd1e609a0528c19930080546001600160a01b031981166001600160a01b03848116918217845560405192169182907f8be0079c531659141344cd1fd0a4f28419497f9722a3daafe3b4186f6b6457e090600090a3505050565b60025460ff1680620019795750600383600381111562001977576200197762002b37565b145b620019c75760405162461bcd60e51b815260206004820152601960248201527f436f6e747261637420697320756e616374697665206e6f77210000000000000060448201526064016200088b565b60008281526006602052604090205460ff161562001a285760405162461bcd60e51b815260206004820152601a60248201527f64697265637469766520686164206265656e2068616e646c656400000000000060448201526064016200088b565b600083600381111562001a3f5762001a3f62002b37565b0362001c1e576000806000806000808680602001905181019062001a64919062002b94565b949a509298509096509450925090506001600160a01b03841662001ac4573083838360405162001a949062002012565b62001aa3949392919062002c71565b604051809103906000f08015801562001ac0573d6000803e3d6000fd5b5093505b60006040518060a001604052808581526020018481526020018360ff168152602001866001600160a01b031681526020018881525090508060038760405162001b0e9190620025e4565b9081526040519081900360200190208151819062001b2d908262002a51565b506020820151600182019062001b44908262002a51565b50604082015160028201805460608501516001600160a01b0316610100026001600160a81b031990911660ff909316929092179190911790556080820151600382019062001b93908262002a51565b5050600480546001810182556000919091527f8a35acfbc15ff81a39ae7d344fd709f28e8600b4aa8c65c6b64bfe7fe36bd19b01905062001bd5878262002a51565b507f6d97a31531bdb3c43d920bc996ec8b9fd7733f5f55a81cd74700f88631fc6032868660405162001c0992919062002cc0565b60405180910390a15050505050505062001d5c565b600183600381111562001c355762001c3562002b37565b0362001d045760008060008380602001905181019062001c56919062002cec565b91945092509050600183600181111562001c745762001c7462002b37565b0362001c9b57600880546001600160801b0319166001600160801b03831617905562001cfb565b600083600181111562001cb25762001cb262002b37565b0362001cfb578060078360405162001ccb9190620025e4565b90815260405190819003602001902080546001600160801b03929092166001600160801b03199092169190911790555b50505062001d5c565b600283600381111562001d1b5762001d1b62002b37565b0362001d31576002805460ff1916905562001d5c565b600383600381111562001d485762001d4862002b37565b0362001893576002805460ff191660011790555b60008281526006602052604090819020805460ff19166001908117909155839055517f475fd2879996e6d1627959bd967d8ad5af1545eb73a302af776ff1f8e68b5e9b9062000c2f9084815260200190565b62001db862001e2a565b620016758162001e74565b6200128462001e2a565b62001dd88262001e7e565b6040516001600160a01b038316907fbc7cd75a20ee27fd9adebab32041f755214dbc6bffa90cc0225b39da2e5c2d3b90600090a280511562001e205762001893828262001ee6565b62000a3c62001f62565b7ff0c57e16840df040f15088dc2f81fe391c3923bec73e23a9662efc9c229c6a0054600160401b900460ff166200128457604051631afcd79f60e31b815260040160405180910390fd5b6200163e62001e2a565b806001600160a01b03163b60000362001eb657604051634c9c8ce360e01b81526001600160a01b03821660048201526024016200088b565b60008051602062003ce283398151915280546001600160a01b0319166001600160a01b0392909216919091179055565b6060600080846001600160a01b03168460405162001f059190620025e4565b600060405180830381855af49150503d806000811462001f42576040519150601f19603f3d011682016040523d82523d6000602084013e62001f47565b606091505b509150915062001f5985838362001f82565b95945050505050565b3415620012845760405163b398979f60e01b815260040160405180910390fd5b60608262001f9b5762001f958262001fe8565b62001fe1565b815115801562001fb357506001600160a01b0384163b155b1562001fde57604051639996b31560e01b81526001600160a01b03851660048201526024016200088b565b50805b9392505050565b80511562001ff95780518082602001fd5b604051630a12f52160e11b815260040160405180910390fd5b610f7b8062002d6783390190565b634e487b7160e01b600052604160045260246000fd5b604051601f8201601f191681016001600160401b038111828210171562002061576200206162002020565b604052919050565b60006001600160401b0382111562002085576200208562002020565b50601f01601f191660200190565b600082601f830112620020a557600080fd5b8135620020bc620020b68262002069565b62002036565b818152846020838601011115620020d257600080fd5b816020850160208301376000918101602001919091529392505050565b6000602082840312156200210257600080fd5b81356001600160401b038111156200211957600080fd5b620021278482850162002093565b949350505050565b60005b838110156200214c57818101518382015260200162002132565b50506000910152565b600081518084526200216f8160208601602086016200212f565b601f01601f19169290920160200192915050565b60a0815260006200219860a083018862002155565b8281036020840152620021ac818862002155565b60ff871660408501526001600160a01b038616606085015283810360808501529050620021da818562002155565b98975050505050505050565b600080600080600060a08688031215620021ff57600080fd5b85356001600160401b03808211156200221757600080fd5b6200222589838a0162002093565b965060208801359150808211156200223c57600080fd5b6200224a89838a0162002093565b955060408801359150808211156200226157600080fd5b6200226f89838a0162002093565b94506060880135935060808801359150808211156200228d57600080fd5b506200229c8882890162002093565b9150509295509295909350565b60006020808385031215620022bd57600080fd5b82356001600160401b0380821115620022d557600080fd5b818501915085601f830112620022ea57600080fd5b813581811115620022ff57620022ff62002020565b8060051b6200231085820162002036565b91825283810185019185810190898411156200232b57600080fd5b86860192505b838310156200236c578235858111156200234b5760008081fd5b6200235b8b89838a010162002093565b835250918601919086019062002331565b9998505050505050505050565b6000806000606084860312156200238f57600080fd5b83356001600160401b0380821115620023a757600080fd5b620023b58783880162002093565b94506020860135915080821115620023cc57600080fd5b50620023db8682870162002093565b925050604084013590509250925092565b6001600160a01b03811681146200167557600080fd5b600080600080600060a086880312156200241b57600080fd5b85356001600160401b03808211156200243357600080fd5b6200244189838a0162002093565b9650602088013591506200245582620023ec565b90945060408701359350606087013590808211156200247357600080fd5b6200248189838a0162002093565b935060808801359150808211156200228d57600080fd5b600060208284031215620024ab57600080fd5b813562001fe181620023ec565b60008060408385031215620024cc57600080fd5b82356001600160401b03811115620024e357600080fd5b620024f18582860162002093565b95602094909401359450505050565b600080604083850312156200251457600080fd5b82356200252181620023ec565b915060208301356001600160401b038111156200253d57600080fd5b6200254b8582860162002093565b9150509250929050565b6000602082840312156200256857600080fd5b5035919050565b600080604083850312156200258357600080fd5b82356001600160401b03808211156200259b57600080fd5b620025a98683870162002093565b93506020850135915080821115620025c057600080fd5b506200254b8582860162002093565b60208152600062001fe1602083018462002155565b60008251620025f88184602087016200212f565b9190910192915050565b634e487b7160e01b600052601160045260246000fd5b6001600160801b038181168382160280821691908281146200263e576200263e62002602565b505092915050565b600181811c908216806200265b57607f821691505b6020821081036200267c57634e487b7160e01b600052602260045260246000fd5b50919050565b60208082526021908201527f74686520616d6f756e74206d757374206265206d6f7265207468616e207a65726040820152606f60f81b606082015260800190565b60208082526023908201527f7468652072656365697665722773206c656e6774682063616e2774206265207a60408201526265726f60e81b606082015260800190565b6020808252602d908201527f4465706f73697420666565206973206e6f7420657175616c20746f207468652060408201526c7472616e73706f72742066656560981b606082015260800190565b60c0815260006200276860c083018962002155565b82810360208401526200277c818962002155565b6001600160a01b038816604085015283810360608501529050620027a1818762002155565b905084608084015282810360a08401526200236c818562002155565b634e487b7160e01b600052603260045260246000fd5b600060018201620027e857620027e862002602565b5060010190565b60808152600062002804608083018762002155565b6001600160a01b0386166020840152828103604084015262002827818662002155565b91505082606083015295945050505050565b60a0815260006200284e60a083018862002155565b6001600160a01b038716602084015260408301869052828103606084015262002878818662002155565b90508281036080840152620021da818562002155565b60008083546200289e8162002646565b60018281168015620028b95760018114620028cf5762002900565b60ff198416875282151583028701945062002900565b8760005260208060002060005b85811015620028f75781548a820152908401908201620028dc565b50505082870194505b50929695505050505050565b60808152600062002921608083018662002155565b60018060a01b0385166020840152828103604084015260018152600360fc1b602082015260408101915050826060830152949350505050565b60006200296b620020b68462002069565b90508281528383830111156200298057600080fd5b62001fe18360208301846200212f565b600080600060608486031215620029a657600080fd5b835160048110620029b657600080fd5b6020850151604086015191945092506001600160401b03811115620029da57600080fd5b8401601f81018613620029ec57600080fd5b620029fd868251602084016200295a565b9150509250925092565b601f8211156200189357600081815260208120601f850160051c8101602086101562002a305750805b601f850160051c820191505b81811015620013835782815560010162002a3c565b81516001600160401b0381111562002a6d5762002a6d62002020565b62002a858162002a7e845462002646565b8462002a07565b602080601f83116001811462002abd576000841562002aa45750858301515b600019600386901b1c1916600185901b17855562001383565b600085815260208120601f198616915b8281101562002aee5788860151825594840194600190910190840162002acd565b508582101562002b0d5787850151600019600388901b60f8161c191681555b5050505050600190811b01905550565b60006020828403121562002b3057600080fd5b5051919050565b634e487b7160e01b600052602160045260246000fd5b600082601f83011262002b5f57600080fd5b62001fe1838351602085016200295a565b805162002b7d81620023ec565b919050565b805160ff8116811462002b7d57600080fd5b60008060008060008060c0878903121562002bae57600080fd5b86516001600160401b038082111562002bc657600080fd5b62002bd48a838b0162002b4d565b9750602089015191508082111562002beb57600080fd5b62002bf98a838b0162002b4d565b965062002c0960408a0162002b70565b9550606089015191508082111562002c2057600080fd5b62002c2e8a838b0162002b4d565b9450608089015191508082111562002c4557600080fd5b5062002c5489828a0162002b4d565b92505062002c6560a0880162002b82565b90509295509295509295565b6001600160a01b038516815260806020820181905260009062002c979083018662002155565b828103604084015262002cab818662002155565b91505060ff8316606083015295945050505050565b60408152600062002cd5604083018562002155565b905060018060a01b03831660208301529392505050565b60008060006060848603121562002d0257600080fd5b83516002811062002d1257600080fd5b60208501519093506001600160401b0381111562002d2f57600080fd5b62002d3d8682870162002b4d565b92505060408401516001600160801b038116811462002d5b57600080fd5b80915050925092509256fe60806040523480156200001157600080fd5b5060405162000f7b38038062000f7b8339810160408190526200003491620001e9565b83838360036200004583826200031c565b5060046200005482826200031c565b5050506001600160a01b0381166200008657604051631e4fbdf760e01b81526000600482015260240160405180910390fd5b6200009181620000d2565b506005805460ff60a01b1916600160a01b60ff8416021790556007620000b883826200031c565b506006620000c784826200031c565b5050505050620003e8565b600580546001600160a01b038381166001600160a01b0319831681179093556040519116919082907f8be0079c531659141344cd1fd0a4f28419497f9722a3daafe3b4186f6b6457e090600090a35050565b634e487b7160e01b600052604160045260246000fd5b600082601f8301126200014c57600080fd5b81516001600160401b038082111562000169576200016962000124565b604051601f8301601f19908116603f0116810190828211818310171562000194576200019462000124565b81604052838152602092508683858801011115620001b157600080fd5b600091505b83821015620001d55785820183015181830184015290820190620001b6565b600093810190920192909252949350505050565b600080600080608085870312156200020057600080fd5b84516001600160a01b03811681146200021857600080fd5b60208601519094506001600160401b03808211156200023657600080fd5b62000244888389016200013a565b945060408701519150808211156200025b57600080fd5b506200026a878288016200013a565b925050606085015160ff811681146200028257600080fd5b939692955090935050565b600181811c90821680620002a257607f821691505b602082108103620002c357634e487b7160e01b600052602260045260246000fd5b50919050565b601f8211156200031757600081815260208120601f850160051c81016020861015620002f25750805b601f850160051c820191505b818110156200031357828155600101620002fe565b5050505b505050565b81516001600160401b0381111562000338576200033862000124565b62000350816200034984546200028d565b84620002c9565b602080601f8311600181146200038857600084156200036f5750858301515b600019600386901b1c1916600185901b17855562000313565b600085815260208120601f198616915b82811015620003b95788860151825594840194600190910190840162000398565b5085821015620003d85787850151600019600388901b60f8161c191681555b5050505050600190811b01905550565b610b8380620003f86000396000f3fe608060405234801561001057600080fd5b50600436106101005760003560e01c8063715018a6116100975780639dc29fac116100665780639dc29fac14610219578063a9059cbb1461022c578063dd62ed3e1461023f578063f2fde38b1461027857600080fd5b8063715018a6146101db57806384da92a7146101e35780638da5cb5b146101f657806395d89b411461021157600080fd5b8063313ce567116100d3578063313ce5671461016b57806340c10f191461018a578063537f53121461019f57806370a08231146101b257600080fd5b806306fdde0314610105578063095ea7b31461012357806318160ddd1461014657806323b872dd14610158575b600080fd5b61010d61028b565b60405161011a91906107f8565b60405180910390f35b610136610131366004610862565b61031d565b604051901515815260200161011a565b6002545b60405190815260200161011a565b61013661016636600461088c565b610337565b600554600160a01b900460ff1660405160ff909116815260200161011a565b61019d610198366004610862565b61035b565b005b61019d6101ad3660046108de565b610371565b61014a6101c036600461098f565b6001600160a01b031660009081526020819052604090205490565b61019d610385565b61019d6101f13660046108de565b610399565b6005546040516001600160a01b03909116815260200161011a565b61010d6103ad565b61019d610227366004610862565b6103bc565b61013661023a366004610862565b6103ce565b61014a61024d3660046109b1565b6001600160a01b03918216600090815260016020908152604080832093909416825291909152205490565b61019d61028636600461098f565b6103dc565b60606006805461029a906109e4565b80601f01602080910402602001604051908101604052809291908181526020018280546102c6906109e4565b80156103135780601f106102e857610100808354040283529160200191610313565b820191906000526020600020905b8154815290600101906020018083116102f657829003601f168201915b5050505050905090565b60003361032b81858561041f565b60019150505b92915050565b600033610345858285610431565b6103508585856104af565b506001949350505050565b61036361050e565b61036d828261053b565b5050565b61037961050e565b600761036d8282610a6c565b61038d61050e565b6103976000610571565b565b6103a161050e565b600661036d8282610a6c565b60606007805461029a906109e4565b6103c461050e565b61036d82826105c3565b60003361032b8185856104af565b6103e461050e565b6001600160a01b03811661041357604051631e4fbdf760e01b8152600060048201526024015b60405180910390fd5b61041c81610571565b50565b61042c83838360016105f9565b505050565b6001600160a01b0383811660009081526001602090815260408083209386168352929052205460001981146104a9578181101561049a57604051637dc7a0d960e11b81526001600160a01b0384166004820152602481018290526044810183905260640161040a565b6104a9848484840360006105f9565b50505050565b6001600160a01b0383166104d957604051634b637e8f60e11b81526000600482015260240161040a565b6001600160a01b0382166105035760405163ec442f0560e01b81526000600482015260240161040a565b61042c8383836106ce565b6005546001600160a01b031633146103975760405163118cdaa760e01b815233600482015260240161040a565b6001600160a01b0382166105655760405163ec442f0560e01b81526000600482015260240161040a565b61036d600083836106ce565b600580546001600160a01b038381166001600160a01b0319831681179093556040519116919082907f8be0079c531659141344cd1fd0a4f28419497f9722a3daafe3b4186f6b6457e090600090a35050565b6001600160a01b0382166105ed57604051634b637e8f60e11b81526000600482015260240161040a565b61036d826000836106ce565b6001600160a01b0384166106235760405163e602df0560e01b81526000600482015260240161040a565b6001600160a01b03831661064d57604051634a1406b160e11b81526000600482015260240161040a565b6001600160a01b03808516600090815260016020908152604080832093871683529290522082905580156104a957826001600160a01b0316846001600160a01b03167f8c5be1e5ebec7d5bd14f71427d1e84f3dd0314c0f7b2291e5b200ac8c7c3b925846040516106c091815260200190565b60405180910390a350505050565b6001600160a01b0383166106f95780600260008282546106ee9190610b2c565b9091555061076b9050565b6001600160a01b0383166000908152602081905260409020548181101561074c5760405163391434e360e21b81526001600160a01b0385166004820152602481018290526044810183905260640161040a565b6001600160a01b03841660009081526020819052604090209082900390555b6001600160a01b038216610787576002805482900390556107a6565b6001600160a01b03821660009081526020819052604090208054820190555b816001600160a01b0316836001600160a01b03167fddf252ad1be2c89b69c2b068fc378daa952ba7f163c4a11628f55a4df523b3ef836040516107eb91815260200190565b60405180910390a3505050565b600060208083528351808285015260005b8181101561082557858101830151858201604001528201610809565b506000604082860101526040601f19601f8301168501019250505092915050565b80356001600160a01b038116811461085d57600080fd5b919050565b6000806040838503121561087557600080fd5b61087e83610846565b946020939093013593505050565b6000806000606084860312156108a157600080fd5b6108aa84610846565b92506108b860208501610846565b9150604084013590509250925092565b634e487b7160e01b600052604160045260246000fd5b6000602082840312156108f057600080fd5b813567ffffffffffffffff8082111561090857600080fd5b818401915084601f83011261091c57600080fd5b81358181111561092e5761092e6108c8565b604051601f8201601f19908116603f01168101908382118183101715610956576109566108c8565b8160405282815287602084870101111561096f57600080fd5b826020860160208301376000928101602001929092525095945050505050565b6000602082840312156109a157600080fd5b6109aa82610846565b9392505050565b600080604083850312156109c457600080fd5b6109cd83610846565b91506109db60208401610846565b90509250929050565b600181811c908216806109f857607f821691505b602082108103610a1857634e487b7160e01b600052602260045260246000fd5b50919050565b601f82111561042c57600081815260208120601f850160051c81016020861015610a455750805b601f850160051c820191505b81811015610a6457828155600101610a51565b505050505050565b815167ffffffffffffffff811115610a8657610a866108c8565b610a9a81610a9484546109e4565b84610a1e565b602080601f831160018114610acf5760008415610ab75750858301515b600019600386901b1c1916600185901b178555610a64565b600085815260208120601f198616915b82811015610afe57888601518255948401946001909101908401610adf565b5085821015610b1c5787850151600019600388901b60f8161c191681555b5050505050600190811b01905550565b8082018082111561033157634e487b7160e01b600052601160045260246000fdfea26469706673582212205de143d3a32596cb15ea0f5ced47a1a39c6b537c9aa1473876583b88965a58f764736f6c63430008140033360894a13ba1a3210667c828492db98dca3e2076cc3735a920a3ca505d382bbca2646970667358221220fabf46e5dd92ad41a7de526714102fc8bd42f6ac79fe0358c7e57e539bdfe8ab64736f6c63430008140033",
  "linkReferences": {},
  "deployedLinkReferences": {}
}